:04000000803114280F
:100008007E1480314101161E0A280B2812280C1E66
:100018000E280F2812288431E42480317E1009002C
:10002800803116288531A4258031AC008531A5257D
:100038008031AD0073308400233085007D30FE00B0
:100048000030FF00853132258031A001A101A201D5
:10005800A301A401A501A601A7017E1040018131D9
:100068006A2900340034B0340134003406340234D0
:100078000034B03403340034063404340034933488
:10008800053400340B34063400345134073400345A
:10009800DE340834003408340934003417340A34A0
:1000A8000034EB340B3400342C340C3400341C345E
:1000B8000D34003414340E3400342A340F34003430
:1000C800403410340034463411340034423412348D
:1000D80000344634133400340534143400348E3478
:1000E80015340034B834163400345234173400341C
:1000F80020341834003419341934003400341A34D4
:10010800003491341B34003420341C340034A934B6
:100118001D340034CF341E34003400341F3400340E
:100128000034203400340B34213400341A3422349F
:1001380000340834233400342134243400340034A7
:100148002534003400342634003400342734003495
:100158000434283400342034293400340F342A3449
:10016800003400342B3400347F342C3400345634BB
:100178002D3400347C342E340034FF3400342F34D2
:10018800003401342F34223402342F340B34033436
:100198002F34003404342F34003405342F34003421
:1001A80006342F34013407342F34003408342F3404
:1001B800003409342F3400340A342F3400340B341B
:1001C8002F3400340C342F3469340D342F34A034D8
:1001D8000E342F3400340F342F34023410342F34BB
:1001E800A63411342F34043412342F340034133429
:1001F8002F345F3414342F34003415342F34203422
:1002080016342F34403417342F340E3418342F3426
:10021800283419342F3403341A342F3400341B345F
:100228002F3433341C342F34FF341D342F34173417
:100238001F342F34503420342F346E3421342F346B
:10024800143422342F34AC3423342F34143424346B
:100258002F34003425342F34003426342F3400341E
:1002680027342F34B43428342F34003429342F342D
:1002780002342A342F3400342B342F3400342C34F5
:100288002F3410342D342F3400342E342F340034CE
:100298002F342F34013430342F34013431342F3497
:1002A800013432342F340E3433342F34A034343400
:1002B8002F34033435342F34013436342F34033497
:1002C80038342F34003439342F3400348431F52451
:1002D8008131400118122930FC009630FB007F3034
:1002E800890B7429FB0B7429FC0B7429000040014D
:1002F80018162930FC009630FB007F30890B8229C4
:10030800FB0B8229FC0B82290000F00185310525B1
:10031800813140019A160530FC000F30FB00F130A6
:10032800890B9429FB0B9429FC0B9429000030308D
:100338008431D12481316830FB00E430890BA22953
:10034800FB0BA229003236308431D1248131683048
:10035800FB00E430890BAE29FB0BAE290032833158
:10036800592381316830FB00E430890BB929FB0B34
:10037800B929003233308431D12481316830FB000F
:10038800E430890BC529FB0BC52900323B30843189
:10039800D12481316830FB00E430890BD129FB0B73
:1003A800D12900325330F0008531A02581313B300E
:1003B8008431D12481316830FB00E430890BE22993
:1003C800FB0BE22900328431652481318231C52258
:1003D80081317330F1002330F2007D30F300833136
:1003E800CA238131D630F1002F30F20084311F2426
:1003F800813135308431D12481314001AF012F085A
:10040800AE007330F1002F30F20084311F248131A7
:100418001F394001AF005230FC002B30FB00003088
:10042800890B142AFB0B142AFC0B142A0032D63031
:10043800F1002F30F20084311F2481311330400144
:100448002F060319282A292A032A4D30F00085315E
:10045800A02581316830FB00E430890B312AFB0B81
:10046800312A003240012E088231632281316830FE
:10047800FB00E430890B3E2AFB0B3E2A00322E306B
:10048800F0008531A02581316830FB00E430890B0C
:100498004B2AFB0B4B2A003236308431D124813170
:1004A8005230FC002B30FB000030890B592AFB0B23
:1004B800592AFC0B592A0032DB2980311428F6000E
:1004C8007608F1000430F136890B672A0A30710288
:1004D80003186F2A702A7E2A7608F1000430F13654
:1004E800890B732A7108303EF2000030031801307E
:1004F800F3008B2A7608F1000430F136890B812A43
:100508007108373EF200003003180130F30072081A
:10051800F0008531A02582316830F100E430890B84
:10052800932AF10B932A00320F307605F1000A3036
:1005380071020318A02AA12AAA2A76080F39303E88
:10054800F400003003180130F500B22A76080F399C
:10055800373EF400003003180130F5007408F0004D
:100568008531A02582316830F100E430890BBA2A40
:10057800F10BBA2A00322030F0008531A0258231F3
:1005880008000A30F0008531A02582313430F700A8
:10059800F230890BCD2AF70BCD2A0D30F0008531CA
:1005A800A02582313430F700F230890BD92AF70BB5
:1005B800D92AF901FA017330F7002330F8007908D5
:1005C800770786007A08783D870001088231632220
:1005D80082312030F0008531A02582310130F907C1
:1005E8000030FA3D00307A027D3003197902031C8D
:1005F800FE2AFF2ADF2A0A30F0008531A025823141
:100608003430F700F230890B072BF70B072B0D302E
:10061800F0008531A02582313430F700F230890BA3
:10062800132BF70B132B0800400198019A01263071
:1006380092001C30940004307D018C00A0018D01D3
:10064800A1018E01A2013F308F003F30A3003F304F
:1006580090003F30A40012307C01C8000130C20075
:100668001C307B019D0013308C0010307C01C700CA
:100678001B307B019C007D019101920193010830A0
:10068800A5001030A600A701A930F0000530F10040
:10069800853194258331A830F0000530F10085318B
:1006A8008E258331410116160800F901FA017A08EE
:1006B800F1007908F0000330F2000030F3008431D3
:1006C800462483313530700784000030713D80380E
:1006D8008500003FF600013FF7007A08F10079082D
:1006E800F0000330F2000030F300843146248331F7
:1006F8003730700784000030713D8038850000086D
:10070800F8008331F6238331A0300032890B892B1E
:100718000130F9070030FA3D00307A0267300319DA
:100728007902031C982B992B5B2B08008334043423
:100738000034003400340034A0340534003400346C
:100748000034003400340034003400340034003401
:1007580000340034003400340034003400340034F1
:1007680000340034003400340034003400340034E1
:100778000034003400340034003400345634053476
:100788004A340534003400340034003440019A12ED
:1007980000320032003200327F30F00085316225AD
:1007A80083317308F000853162258331F401E92B28
:1007B8007408710786000030723D87000108F00058
:1007C8008531622583310130F40773087402031CF4
:1007D800EE2BEF2BDC2B00320032003200324001CE
:1007E8009A16080040019A12003077023030031937
:1007F80076020318002C012C0D2C76083F39F000E6
:100808008531622583317808F0008531622583318E
:100818001C2C2F30F0008531622583317608F000DA
:100828008531622583317808F0008531622583316E
:1008380040019A16080040019A12003072023030C6
:10084800031971020318292C2A2C372C71083F39F7
:100858008038F000853162258431F00185316225C8
:100868008431F300422CAF30F000853162258431A9
:100878007108F000853162258431312C40019A16C7
:1008880073080800F401F501701C4B2C4C2C502CFB
:100898007208F4077308F53D0130F235F30D890B42
:1008A800512C0130F136F00C890B562C700871046C
:1008B800031D5F2C602C482C7508F1007408F000AB
:1008C8000800F801F9017330F6002330F7007808C2
:1008D800760786007908773D87008431BC24843107
:1008E80081000130F8070030F93D003079027D3091
:1008F80003197802031C812C822C672C08004830CD
:100908004E019200903090002630910040308E00C9
:1009180003308F000030F0000030F100853156259B
:1009280084310030F0000030F10085314A258431EF
:100938004001A401A50108003E3405340034003408
:1009480005340534003400340034003400340034F5
:100958000034003462340534003400340034003488
:1009680000340034003400340034003400340034DF
:1009780040012D08F1002C08F0006D30F2004E30D7
:10098800F3008431462484317008393E4001AC00BC
:100998003030713DAD002C080800F10040019A127A
:1009A8001A30890BD52C00327108F0008531622588
:1009B80084311A30890BDE2C003240019A16080067
:1009C8007D01A71DE82CE92CEC2C853123258431E9
:1009D8007D01271EF02CF12CF42C8531142584314F
:1009E8000800853179258431833118238431843195
:1009F8008324843185313E25843185316E258431C7
:100A080008004F01901A092D0A2D132D40308F0030
:100A18002030900092010F308D009016132D0800A1
:100A280040012808290403191A2D1B2D202D2908F7
:100A38008A0028080A0085317D0127120800400134
:100A48002A082B040319292D2A2D2F2D2B088A005B
:100A58002A080A0085317D01A71108006400800179
:100A680001310130FE020030FF3B7F087E04031D88
:100A7800332D003441011B11111140304F018F00FB
:100A880020309000920163308D00080070087104D6
:100A980003194F2D502D552D71084001A1007008E4
:100AA800A00008007008710403195B2D5C2D612DEE
:100AB80071084001A3007008A200080070084F01E7
:100AC8008C004101111D692D6A2D652D11114F01F1
:100AD8000C08080041010C100B140030F000003025
:100AE800F10085319A2585310800603045018D0077
:100AF80040308F0091010530930092019401080065
:100B08004034203400343F3400344034203400343E
:100B18003F34003471084001A9007008A80008009B
:100B280071084001AB007008AA0008007108400174
:100B3800A7007008A600080070084E018D00080084
:0C0B4800E134AC346734003408000800CD
:020000040001F9
:0A000E008F3FFF3F9F3FFF3FFF3F82
:00000001FF
